S00C00004D617A652E737265638B
S11300000C9457000C9474000C9474000C947400B9
S11300100C9474000C9474000C9474000C9474008C
S11300200C9474000C947A0A0C9474000C9474006C
S11300300C9474000C9442070C9474000C94740097
S11300400C9474000C9474000C9474000C9474005C
S11300500C9474000C9474000C9474000C9474004C
S11300600C9474000C947400000000000000001F45
S11300701F1F1F1F1F1F4C31362063646567726585
S11300806734003E6733323E3E63333200666F6C42
S11300906C6F776572004C696E650033F720526FA0
S11300A0626F740020506F6C6F6C75003E0B1124EE
S11300B01FBECFEFD8E0DEBFCDBF11E0A0E0B1E0BE
S11300C0E8E9F4E202C005900D92AC34B107D9F727
S11300D022E0ACE4B1E001C01D92AC31B207E1F71B
S11300E00E94D5020C943F120C94000060E088E654
S11300F090E00E94730861E089E690E00E94730832
S113010062E08AE690E00E94730863E08BE690E088
S11301100E94730864E08CE690E00E94730865E036
S11301208DE690E00E94730866E08EE690E00E94FF
S113013073080E94E6080895EF92FF920F931F93AD
S1130140CF93DF93CDB7DEB72A970FB6F894DEBF0F
S11301500FBECDBF8C017C018AE0E80EF11C8AE061
S1130160E4E1F1E0DE01119601900D928A95E1F748
S1130170F801219131918F01A7E4B4E10E94BF10ED
S1130180969587959695879596958795E1E0F0E005
S1130190EC0FFD1FE80FF91F80810E9476080E15F1
S11301A01F05E9F62A960FB6F894DEBF0FBECDBF41
S11301B0DF91CF911F910F91FF90EF9008950F93CE
S11301C01F93CF93DF93CDB7DEB72A970FB6F8947A
S11301D0DEBF0FBECDBF80ED97E00E943A0B0E94B8
S11301E0760084EA90E00E94060961E080E00E94C3
S11301F07E098BE990E00E94060983E890E00E9462
S1130200B30788EE93E00E94C20A0E94E60886E9DA
S113021090E00E94060961E080E00E947E098DE87A
S113022090E00E94060988EE93E00E94C20A1BC077
S11302300E9488048C010E94E608B801110F880B03
S1130240990B0E945B098BE391E00E94F50861E041
S113025080E00E947E098EE391E00E94F50884E626
S113026090E00E94C20A80E10E94770A882301F389
S113027080E10E94630A88EE93E00E94C20A0CEEB9
S11302801FEF0832110538F068ED7FEF88E290E047
S11302900E94340A06C068E270E088ED9FEF0E9475
S11302A0340A81E00E94FE0A84E190E00E94C20ABE
S11302B00F5F1F4F0C33110521F760E070E080E001
S11302C090E00E94340A19C061E0CE0101960E94B8
S11302D0040B8C010E94E608B80180E090E00E94C3
S11302E05B0961E080E00E947E09CE0101960E94D4
S11302F09C0084E690E00E94C20A80E10E94770A92
S1130300882311F380E10E94630A0E94E60886E4D0
S113031091E00E94F50886E790E00E94B3070E94EE
S1130320A2078111FCCF2A960FB6F894DEBF0FBE48
S1130330CDBFDF91CF911F910F9108958C3429F097
S1130340823571F0823409F516C060E570E080EB07
S11303509FEF0E94340A88EC90E00E94C20A08953C
S113036060EB7FEF80E590E00E94340A88EC90E037
S11303700E94C20A089560EB7FEF80E590E00E943E
S1130380340A80E991E00E94C20A0895811106C0EE
S1130390611106C0411106C082E408958CE40895F9
S11303A083E5089582E508952F923F924F925F92DC
S11303B06F927F928F929F92AF92BF92CF92DF9271
S11303C0EF92FF920F931F93CF93DF93CDB7DEB7D6
S11303D02A970FB6F894DEBF0FBECDBF812C912CA7
S11303E0540100E010E00F2EF0E14F2EF7E25F2EF3
S11303F0612C712CF02D0F2EF4E12F2E312CF02DC9
S11304000F2EF4E6CF2ED12CF02D61E0CE01019613
S11304100E94040B805D97407C01092E000CAA0BFE
S1130420BB0B880E991EAA1EBB1EC701801B910B15
S11304308C01000F111F080F191F112314F40F5FF3
S11304401F4F15950795C501B401A30192010E94A0
S1130450A010200F311FC701B1010E946A10260F9E
S1130460371F253631050CF09601C9018C392FEF61
S1130470920714F48CE99FEF992334F4B6018C5954
S11304809F4F0E94340A06C0B601681B790BC6014F
S11304900E94340A8B819C818436910550F48D81AD
S11304A09E818436910528F48F8198858436910540
S11304B060F089819A81893C910538F489859A850F
S11304C0893C910510F48701A0CF2A960FB6F894C1
S11304D0DEBF0FBECDBFDF91CF911F910F91FF9073
S11304E0EF90DF90CF90BF90AF909F908F907F90D0
S11304F06F905F904F903F902F900895CF93DF932C
S11305002091AF01233008F44DC0C22FD0E0FE018A
S1130510E255FE4F8081823409F044C0AE01FA01F5
S1130520E055FE4F43555E4F60E070E092919C347D
S113053041F0923519F0923449F406C0665A7F4F5F
S113054005C0625F7E4F02C06C547F4FE417F5070D
S113055069F7CB0168E671E00E946A108A3591055B
S113056081F01CF4892BD9F407C0843B910571F008
S11305708E30914081F013C0C355DE4F83E58883EC
S11305800EC0C355DE4F82E5888309C0C355DE4FD4
S113059082E4888304C0C355DE4F8CE488832250F0
S11305A02093AF01DF91CF910895EF92FF920F93C3
S11305B01F93CF93DF93CDB7DEB72A970FB6F89486
S11305C0DEBF0FBECDBF0E94DF00F12C0E94D4011C
S11305D062E370E082E390E00E94340A82E390E0F8
S11305E00E94C20A61E0CE0101960E94040B11E050
S11305F089819A818536910508F41F2D01E089854A
S11306009A858536910508F40F2D68E270E088E23A
S113061090E00E94340A88EC90E00E94C20A61E0F3
S1130620CE0101960E94040B8B819C81893C91052B
S113063068F42D813E81293C310550F461E02F811D
S11306403885293C310528F46F2D03C061E001C0D1
S113065061E08B38924050F08D819E818B389240BE
S113066028F08F8198858B389240A0F4402F812FF9
S11306700E94C601182F0E949E018091AF01E82FAD
S1130680F0E0E055FE4F10838F5F8093AF010E942E
S11306907E029CCF60E070E080E090E00E94340A2B
S11306A080E10E94770A8823D9F380E10E94630ADB
S11306B084E690E00E94C20A8091AF01882359F138
S11306C00F2EF0EBEF2EF1E0FF2EF02D00E010E006
S11306D00E94D40162E370E082E390E00E94340A55
S11306E082E390E00E94C20A68E270E088E290E04F
S11306F00E94340A88EC90E00E94C20AF7018191BA
S11307007F010E949E010F5F1F4F8091AF0190E017
S113071008171907ECF20E94D4018B819C8185385B
S1130720934080F08D819E818538934058F08F816D
S113073098858538934030F062E370E082E390E07E
S11307400E94340A60E070E080E090E00E94340A85
S113075080E090E02A960FB6F894DEBF0FBECDBFBE
S1130760DF91CF911F910F91FF90EF900895ECE7E7
S1130770F0E080818F7D80830895811103C00E9401
S1130780B703089580917C00806280937C00089573
S113079080917C0085FB882780F908950E94C80316
S11307A0882321F08091790090E008958091780069
S11307B09091790008958032A0F497E890937A009C
S11307C090917C00662311F0906C02C09F77906436
S11307D0907E982B90937C0080917A008064809323
S11307E07A000895A0E0B0E0E8EFF3E00C94EB1099
S11307F0EB0160E00E94DB0380917A0086FDFCCF70
S11308008E01C12CD12C760180917A008064809372
S11308107A0080917A0086FDFCCF0E94CE03C80E38
S1130820D91EE11CF11C015011090115110561F7D4
S1130830CE0196958795C034D10538F48C0D9D1D55
S1130840BE010E945610CB010EC0A7019601280FCD
S1130850391F411D511DCA01B9019E0140E050E0FC
S11308600E947E10C901CDB7DEB7E8E00C940711F1
S1130870CF92DF92EF92FF92A0910001B09101011B
S11308809C010E94BF106B017C010E94C803882355
S113089059F0C701B60161587F4F8F4F9F4F2FEF1B
S11308A030E040E050E00AC0C701B60161507E4F1D
S11308B08F4F9F4F2FEF33E040E050E00E947E10B7
S11308C0C901FF90EF90DF90CF9008950E94F2034A
S11308D00E94380408951F93CF93DF930E94C803A6
S11308E0182F0E94B7036AE070E086E00E94660455
S11308F0EC01812F0E94BD03CE01880F991F8C0F3C
S11309009D1F019696958795DF91CF911F9108952C
S11309100E946B04089590915101E0914C01F09173
S11309204D01992311F0849101C080812FEB280F90
S11309302A3110F4805E0895803249F49F012F5FBC
S11309403F4F30934D0120934C01EF2B31F7089525
S11309501F93CF93DF930E948B04C0E0D0E01AE092
S113096090ED980F9A30B8F49E01129FE001139F06
S1130970D00D1124C80FD11D87FDDA95E097809121
S11309804C0190914D01019690934D0180934C013F
S11309900E948B04E5CFCE01DF91CF911F91089582
S11309A010926F0083E28093800081E18093810044
S11309B01092820080E197E29093890080938800EE
S11309C010928B0010928A00229A789408958F9244
S11309D09F92AF92BF92DF92EF92FF920F931F9379
S11309E0CF93DF935C018B01D42E80914E01811152
S11309F005C081E080934E010E94D00410920B0147
S1130A00B7FE05C0E894B7F82AE0F22E02C0FF242E
S1130A10F394E09081002E2D287FE22E48ECF49E82
S1130A20C00111248A159B05E0F4E50151E1A516E6
S1130A3057E2B50610F0C0E1D7E2BE01769567959E
S1130A4080E090E06058794687469F4F4E01A12C84
S1130A50B12CA50194010E947E1059018E2D816054
S1130A6024C0C8E2FC9EC02D1124D0E0CA15DB05C9
S1130A7008F4E501BE01769567959E0140E050E0DB
S1130A808AE0F81207C080E090E0605E734481441D
S1130A909F4F06C080E090E060537D4E8C4E9F4F88
S1130AA00E947E1059018E2D8260882E2AE0F21257
S1130AB007C0CE0105966AE070E00E945610EB0173
S1130AC0C83E43E0D40759F09801DE010E94BF10EC
S1130AD028EE33E040E050E00E94A010890110921B
S1130AE06F0080928100B0928900A09288002091CA
S1130AF08800309189004D2D403108F04FE080E1AD
S1130B0090E0841B9109A90102C0569547958A95E6
S1130B10E2F750938B0040938A00109354010093A2
S1130B20530186B38FEF86BB81E080936F00DF9122
S1130B30CF911F910F91FF90EF90DF90BF90AF90F6
S1130B409F908F900895CF93DF93EB018F3F11F027
S1130B50411105C040E0BE0188EE93E043C08131FD
S1130B6030F050EF580F503618F05FE501C050E0F8
S1130B70852F6CE00E944A10682F74EF7603900171
S1130B801124250F311D2C30310540F4F901EE0FED
S1130B90FF1FE25EFE4F2081318102C020E030E081
S1130BA0873081F0082E02C0220F331F0A94E2F727
S1130BB0823028F0C90105966AE070E00CC0C901D2
S1130BC090580CC0C90136E0880F991F3A95E1F797
S1130BD0029665E070E00E945610CB01403108F0A7
S1130BE04FE0BE010E94E704DF91CF910895A2E097
S1130BF0B0E0EDEFF5E00C94E31090900A018091E1
S1130C005001882321F060914F01611117C07724AE
S1130C107394B0ECAB2EBDE5BB2E1AE0612E04E05C
S1130C20802E80EDC82E87E0D82E94E0E92EF12C9A
S1130C3004EF11E02FE0422E512C15C070E040E08B
S1130C4088EE93E00E94E70410924F0117C18636A4
S1130C50D4F5813609F4A9C07CF58C3309F460C05D
S1130C608E3381F493940E948B0420914C01309133
S1130C704D012F5F3F4F30934D0120934C0185363A
S1130C8031F752C0813209F08BC080920A01D092B0
S1130C900901C0920801F0920701E0920601109345
S1130CA00501009304015092030140920201109245
S1130CB05001A4E09A2ED7CF8336A1F10CF478C06A
S1130CC010E082E077C08D36C1F194F4873691F15B
S1130CD074F18C3609F064C00E94A804BC0190939E
S1130CE0070180930601809108019091090151C088
S1130CF08237C9F14CF48F3609F052C00E94A8041F
S1130D00982E80930A01AFCF843781F1863709F09A
S1130D1047C00E94A8049093030180930201A3CFCB
S1130D209A94A1CF10E020C010E084E043C010E00A
S1130D3085E040C010E087E03DC00E948B048C3603
S1130D4019F41092500104C07092500110924F0196
S1130D5020914C0130914D012F5F3F4F30934D0155
S1130D6020934C0180CF11E080E024C00E94A804AD
S1130D70BC01C5010E945610669EC001679E900D7D
S1130D8011249093090180930801609106017091E8
S1130D9007010E945610709305016093040163CF0C
S1130DA010924D0110924C0169C010E089E002C01C
S1130DB010E08BE0082F9CE0999E000D11240E9406
S1130DC08B04982F977F933261F420914C013091DA
S1130DD04D012F5F3F4F30934D0120934C010F5F26
S1130DE0EECF8D3271F420914C0130914D012F5F83
S1130DF03F4F30934D0120934C0101500E948B04CE
S1130E00F0CF60910401709105018153883050F452
S1130E10E0900801F09009010E94A804BC01C701F8
S1130E200E9456107B01F694E79469837A830E94AA
S1130E308B0469817A818E3269F420914C0130915E
S1130E404D012F5F3F4F30934D0120934C016E0DA8
S1130E507F1DE9CF80915001882339F09B0136959D
S1130E60279520934F01621B7109409102011123C0
S1130E7011F08FEF01C0802F0E94A3052296E0E1BC
S1130E800C94FF101F920F920FB60F9211242F9300
S1130E903F934F935F936F937F938F939F93AF93FE
S1130EA0BF93EF93FF9380915301909154019C0160
S1130EB0215031093093540120935301892B11F5AA
S1130EC010926F00789480918100887F8160809374
S1130ED0810080E197E290938900809388001092CA
S1130EE08B0010928A0081E080930B0180914C0169
S1130EF090914D01892B31F080915201811102C0F2
S1130F000E94F705FF91EF91BF91AF919F918F914F
S1130F107F916F915F914F913F912F910F900FBEF1
S1130F200F901F90189580910B01882349F081E060
S1130F3020914C0130914D01232B19F480E0089548
S1130F4081E008950E949307089510926F00909392
S1130F504D0180934C0181E08093510110924F0127
S1130F600E94F70508950E94A507089581E090E086
S1130F706F9364E06A95F1F76F910197C9F708954B
S1130F800F931F93CF93DF931AB157985A98289AC7
S1130F90C0E0D0E00E94B6075C9A0E94B60709B18F
S1130FA05C980E94B6075C9A0E94B6075C982496E7
S1130FB007FF10C0AE0160E070E080915501909190
S1130FC05601A0915701B0915801481759076A0773
S1130FD07B0700F31AB9DF91CF911F910F91089508
S1130FE095B1282F217030E0220F331F482F46700F
S1130FF068E0469FA0011124242B9D7C292B25B950
S11310009BB188708295807F9F77892B8BB95C9A7E
S11310100E94B6075C980E94B6070895A0E0B0E06D
S1131020E4E1F8E00C94EC10C82FD62EE42E809165
S11310301402811105C081E0809314020E947E088D
S11310400E94C00714B1D5B1FAB00BB12898DD20C5
S113105011F05A9A01C05A9894B1926394B9579A6C
S113106081E0E81629F08C2F82958F700E94F0079A
S11310708C2F8F700E94F007FAB80BB914B9D5B948
S1131080CDB7DEB7E7E00C94081142E060E00E94BF
S11310900E08089542E061E00E940E080895A1E060
S11310A0B0E0E5E5F8E00C94ED108C01660F660FF6
S11310B0660FE12CF12C8E2D860F806469830E94CB
S11310C04508F801EE0DFF1D84910E944A088FEF38
S11310D0E81AF80A6981E8E0EE16F10461F721964E
S11310E0E6E00C9409110E944F0808950E944A08F2
S11310F0089541E060E00E940E08089580E197E2BF
S1131100A0E0B0E08093550190935601A09357015D
S1131110B0935801529A209A549A8EE190E00E941A
S1131120C20A83E00E94790886E090E00E94C20A25
S113113083E00E94790882E090E00E94C20A83E082
S11311400E94790882E090E00E94C20A82E00E9434
S1131150790882E090E00E94C20A88E20E94450871
S113116088E00E94450881E00E94450886E00E94CC
S113117045088CE00E944508089581E00E944508D6
S113118080915B0190915C01892BF9F060E0A0E211
S1131190262F30E070910C0180910D0190E00197B1
S11311A0789FA001799F500D1124241735074CF422
S11311B0E0915B01F0915C01E20FF31FA0836F5F8C
S11311C0E7CF1092590110925A0108950E94BD0868
S11311D00895CF93DF93EC018991882319F00E943D
S11311E04A08FACFDF91CF9108950E94E908089543
S11311F0CF93DF93EC01FE018491882321F00E94B8
S11312004A082196F8CFDF91CF9108950E94F808FB
S11312100895AAE0B0E0EFE0F9E00C94EB101AE0D6
S11312205AE0C52ED12CE12CF12C062FA7019601F2
S11312300E947E10CA01B9011150E1E0F0E0EC0F08
S1131240FD1FE10FF11D005D2AE0629F00191124CA
S11312500083611571058105910539F71A3058F439
S1131260E1E0F0E0EC0FFD1FE10FF11D80810E9431
S11312704A081F5FF3CF2A96E8E00C940711CF9237
S1131280DF92EF92FF926B017C0197FF0BC0F09409
S1131290E094D094C094C11CD11CE11CF11C8DE2DB
S11312A00E944A08C701B6010E940909FF90EF9005
S11312B0DF90CF9008950E943F090895A5E0B0E023
S11312C0E4E6F9E00C94F010182F80E8898380ECB0
S11312D08A8384E98B8384ED8C83FE01E60FF11D00
S11312E08181810F6D830E944508109359016D819E
S11312F060935A012596E3E00C940C110E945E0958
S11313000895883058F491E001C0990F8A95EAF75E
S1131310892FAAE2B0E0EBE2F0E021C08E3060F465
S113132098EF980F81E001C0880F9A95EAF7A4E23C
S1131330B0E0E5E2F0E013C0853160F492EF980F7D
S113134081E001C0880F9A95EAF7A7E2B0E0E8E2ED
S1131350F0E005C080E0A0E0B0E0E0E0F0E06F3F46
S113136019F49081982709C0662319F09081982B6D
S113137004C02081982F9095922390839C91982B60
S11313809C93089583EF8093B00084BD82E08093A2
S1131390B10085BD1092B4001092B30018BC17BC04
S11313A060E086E00E94810960E085E00E94810996
S11313B060E08BE00E94810960E083E00E94810983
S11313C0089580911502811105C081E08093150272
S11313D00E94C2090895CF93DF93EC010E94E109B2
S11313E0D7FF05C0D195C195D10981E001C080E046
S11313F0CF3FD10519F014F0CFEFD0E0882319F0D6
S113140018BCC7BD02C0C8BD17BCDF91CF910895F9
S1131410CF93DF93EC010E94E109D7FF05C0D1957A
S1131420C195D10981E001C080E0CF3FD10519F019
S113143014F0CFEFD0E0882329F01092B400C093C9
S1131440B30004C0C093B4001092B300DF91CF91F5
S11314500895CF93DF93EB010E94EB09CE010E9424
S1131460080ADF91CF9108950E94290A089584B152
S11314708D7C84B985B1826385B985E090E06F93F2
S113148064E06A95F1F76F910197C9F70895809127
S11314901602811105C081E0809316020E94370A6A
S11314A00895CF93C82F0E94470A83B18C23E9F390
S11314B08AE090E00E94C20A83B18C23B1F383B125
S11314C08C23CF9108950E94510A0895A1E0B0E0C1
S11314D0ECE6FAE00C94F11089830E94470A93B178
S11314E09095898189232196E2E00C940D110E9444
S11314F0660A08952F928F939F932FB6809164016B
S1131500909165010196809364019093650190E048
S113151080916601891F8093660190915E019C5FB2
S113152090935E0180915D0180519742C0F0909349
S11315305E0180935D0180915F019091600101964D
S113154080935F019093600190E080916101891F15
S11315508093610180916201891F809362012FBE93
S11315609F918F912F90189528EE33E0019748F0C2
S1131570F9016F9364E06A95F1F76F913197C9F7B8
S1131580F5CF08950E94B40A0895E0E7F0E0808161
S11315908E7F8083A0EBB0E08C9183608C93A1EB71
S11315A0B0E08C91807F8C938C9182608C93B89AFC
S11315B080818160808378940895809117028111DD
S11315C005C081E0809317020E94C50A08950E9415
S11315D0DD0AE0E7F0E080818E7F808310925F0176
S11315E010926001109261011092620110925E01EA
S11315F010925D018081816080830895682F87E661
S113160091E00E94E60E0895462F20E0BC0187E693
S113161091E00E94B70F08950F93CF93DF9300D00A
S113162000D01F92CDB7DEB79C0185E0E6E3F1E080
S1131630DE01119601900D928A95E1F7662311F06F
S11316400FEF01C003E145E0BE016F5F7F4F87E606
S113165091E00E94DE0B87E691E00E94B50B0E94A8
S1131660E70A0F900F900F900F900F90DF91CF919A
S11316700F91089560E00E940C0B089587E691E0B5
S11316800E942C1008956F9364E06A95F1F76F91AE
S11316900197C9F70895FC01118210821382128206
S11316A0158214821682683068F489E290E091838E
S11316B080838BE290E0938382838AE290E0958337
S11316C084831FC06E3070F483E290E09183808342
S11316D085E290E09383828384E290E0958384831F
S11316E068500FC0653198F486E290E0918380835E
S11316F088E290E09383828387E290E095838483F9
S11317006E5081E001C0880F6A95EAF786830895D8
S1131710A7E0B0E0EEE8FBE00C94EF108C01FC01D4
S11317201182108213821282158214821782168209
S1131730613118F080E1808702C0FC016087F80104
S1131740208B642FCE0101960E944B0B8F81F801F0
S113175081878B819C81938782878D819E819587E8
S113176084872796E4E00C940B11FC01A485B585CD
S1131770109779F08C919185892B8C93A285B385F0
S11317809C918185809589238C9388EC90E00E94BC
S1131790430B0895FC01A485B585109771F08C91D5
S11317A09185892B8C93A285B3858C919185892B06
S11317B08C9388EC90E00E94430B0895A7E0B0E07E
S11317C0E4EEFBE00C94E4107C014B01642F39013E
S11317D0402F20E00E94880B87010F5B1F4FF80108
S11317E010826701F2E4CF0ED11CF601108257017A
S11317F0F3E4AF0EB11CF5011082F701778666861B
S1131800512CF7018085581650F5652C712CF40184
S1131810E60DF71D6081CE0101960E944B0B2F81CE
S1131820F701E60DF71D218B89819A81F301EE0FF3
S1131830FF1FEE0DFF1D92A381A38332910511F4C6
S1131840F80108C08632910511F4F60103C08997A6
S113185021F4F5018081822B80835394D2CF279683
S1131860EFE00C940011A0E0B0E0E9E3FCE00C949C
S1131870E610EC015B016C0181E4C80ED11CF60199
S113188080807E01F2E4EF0EF11CF70170808E017E
S11318900D5B1F4FF801908080E09885891748F40C
S11318A0F501E80FF11DE80FF11D118210828F5F21
S11318B0F4CF84B1F6019081892B84B987B1F70103
S11318C09081892B87B98AB1F8019081892B8AB9D3
S11318D085B1F6019081892B85B988B1F701908192
S11318E0892B88B98BB1F8019081892B8BB98AE057
S11318F090E00E94430B94B1F60180818095892386
S113190084B997B1F70180818095892387B99AB109
S1131910F8018081809589238AB995B1F601808187
S11319208095892385B998B1F701808180958923B1
S113193088B99BB1F8018081809589238BB9E090A7
S1131940B000D090B1008091B00083608093B0006B
S113195082E08093B1004091B20080E090E02E8557
S11319603F858217930720F5C090B2002C2D241BCD
S1131970820F911D03B1081132C0F6B0F7102FC0C9
S113198029B129112CC010C0212F30E0A901440F26
S1131990551FF501E40FF51F60817181672B21F15B
S11319A01F5F2885121780F37F2C802E4C2DD7CFF4
S11319B0E092B000D092B10020E08885281730F57D
S11319C0F501E20FF11DE20FF11D80819181892B58
S11319D021F48E859F85918380832F5FEECF03B1A1
S11319E0F6B099B010E0DDCFDE01A40FB51F9196DB
S11319F00D90BC91A02D4C91DE01A20FB31F519606
S1131A002C91422369F691838083CACFCDB7DEB788
S1131A10EDE00C940211EF92FF920F931F93CF937A
S1131A20DF93FC019B01F0907C0000917A0047B1A8
S1131A3018B180917A0086FDFCCF80E090858917EB
S1131A4048F4D901A80FB11DA80FB11D1D921C9215
S1131A508F5FF4CF97B182A18095892387B998B11C
S1131A6082A18095892388B987E880937A00E12C44
S1131A7081A1E81610F0E12C29C050E080855817A8
S1131A8018F5A52FB0E0EF01CA0FDB1F8989806428
S1131A9080937C0080917A00806480937A008091A6
S1131AA07A0086FDFCCF6091780070917900AA0FCE
S1131AB0BB1FA20FB31F8D919C911197860F971F87
S1131AC08D939C935F5FDACFE394D2CF8085E81641
S1131AD0A0F4E901CE0DD11DCE0DD11D61A170E0A0
S1131AE0CB0195958795A881B9818A0F9B1F0E9488
S1131AF0561079836883E394E9CFF0927C000093D5
S1131B007A0018B947B9CDB7DEB7E6E00C940911ED
S1131B10A0E2B0E0EEE8FDE00C94EC108C017B0157
S1131B20D42E8FEF840F823018F4C8010E94CA0BA0
S1131B30D80150968C91B701811110C0C8010E9440
S1131B40330CC8010E94B50BB2E0DB123AC0BE01EF
S1131B506F5F7F4FC8010E94330C0FC0C8010E9401
S1131B600B0DC8010E94B50BE2E0DE122AC0BE01D3
S1131B706F5F7F4FC8010E940B0D40E0F801808524
S1131B804817F8F4842F90E0880F991FF701E80FA5
S1131B90F91F21E030E02C0F3D1F820F931FD80165
S1131BA01E962D913C911F97DC018D919C91281BD1
S1131BB0390B80819181820F931F918380834F5FC2
S1131BC0DDCFA096E7E00C9408112F923F925F922C
S1131BD06F927F928F929F92AF92BF92CF92DF9239
S1131BE0EF92FF920F931F93CF93DF93CDB7DEB79E
S1131BF0C056D1090FB6F894DEBF0FBECDBF8C011D
S1131C004B015A01522EDA018D919C91892B31F0AE
S1131C10F40180819181892BF1F424C0D8011896B4
S1131C208C9190E0880F991F0E941E11F5019183F9
S1131C308083009709F4B1C0FC0120E030E0D801B2
S1131C4018968C9190E02817390714F71192119285
S1131C502F5F3F4FF4CFE12CF12C6E01B1E2CB0E9C
S1131C60D11C21C0F801808590E0880F991F0E9443
S1131C701E11D4018D939C93009709F48EC0FC012E
S1131C8020E030E0D80118968C9190E028173907AD
S1131C9014F7D8011E968D919C911F97819391936F
S1131CA02F5F3F4FEFCF452DBE016F5B7F4FC801C4
S1131CB00E94880DF8016084712CFE01EF5BFF4FD8
S1131CC0C6019E012F5F3F4F190120E030E0261529
S1131CD037054CF5E114F10489F0DC016D917C9138
S1131CE0408151816417750748F0D1016D917C9151
S1131CF0408151814617570748F00DC040815181FA
S1131D00DC014D935C93E114F10479F74081518136
S1131D10D1014D935C932F5F3F4FB2E02B0E311CEA
S1131D2032960296D4CFEFEFEE1AFE0AFAE0EF16DF
S1131D30F10409F0B8CF9E012F5F3F4F79013601BE
S1131D4080E090E0F801208530E0821793072CF5BD
S1131D50D7012D913D917D01B3016C197D09D50108
S1131D60ED91FC91E60FF71F408151814217530713
S1131D7010F431832083F301219131913F01D40187
S1131D80ED91FC91E60FF71F40815181241735072F
S1131D9010F4318320830196D5CFC05ADF4F0FB69C
S1131DA0F894DEBF0FBECDBFDF91CF911F910F918D
S1131DB0FF90EF90DF90CF90BF90AF909F908F9067
S1131DC07F906F905F903F902F9008951F93CF93D3
S1131DD0DF93EC01162F8FEF860F823018F0662305
S1131DE059F014C021E0AE014E5F5F4FBE01CE0139
S1131DF00E94E50D123051F4AE014A5F5F4FBE01FF
S1131E006C5F7F4F20E0CE010E94E50DDF91CF9102
S1131E101F910895A0E0B0E0E0E1FFE00C94EA1027
S1131E20EC018B01B42E842F8D7F51F48C819D8124
S1131E30892B09F497C08E819F81892B09F492C064
S1131E408FEF8B0D823050F488819981892B09F4AE
S1131E5089C08A819B81892B09F484C04B2DB801E8
S1131E60CE010E94880D780100E010E0C12CD12C35
S1131E70888590E0C816D9060CF074C081E0B812C9
S1131E800AC0EA81FB81E00FF11F0190F081E02D8F
S1131E90A881B9810DC08C819D812E813F81B110B3
S1131EA00CC0F901E00FF11F0190F081E02DDC017D
S1131EB0A00FB11F8D919C9128C0FC01E00FF11F70
S1131EC040815181E881F981E00FF11F8081918186
S1131ED0EE85FF854817590710F4CF0104C08E0F13
S1131EE09F1F841B950BD901A00FB11F2D913C910D
S1131EF0AA81BB81A00FB11F4D915C9124173507B6
S1131F0020F0E40FF51FE21BF30BE81BF90BA9F01B
S1131F10D7012D913C9140E050E0281B390B410939
S1131F205109A8EEB3E00E94CE109F0140E050E0BA
S1131F300E94A01037FD0AC002C020E030E0293E14
S1131F40B3E03B072CF028EE33E002C020E030E0A1
S1131F50F701219331937F01FFEFCF1ADF0A0E5F60
S1131F601F4F86CFCDB7DEB7E9E00C940611A0E091
S1131F70B0E0EDEBFFE00C94E110EC018B01822E5C
S1131F800E940A0F2884E801412C512C320100E000
S1131F9010E0C12CD12C7601312C912C58EEA52EB9
S1131FA053E0B52E921421F1E991F991882021F0A2
S1131FB0C5018E1B9F0BFC01E93CF10524F4E333BE
S1131FC0F10574F002C033243394DF01A3019201BC
S1131FD00E94D910C60ED71EE81EF91E0E0F1F1F31
S1131FE0939498EE490E93E0591E611C711CDACF4C
S1131FF031101EC0492D50E04150510924EF31E009
S1132000429FC001439F900D529F900D1124209137
S1132010AB013091AC0128173907B4F088EE93E096
S1132020489F9001499F300D589F300D11240EC0D8
S1132030980140E050E0C701B6010E947E10309341
S1132040AC012093AB0102C020E030E0C901CDB760
S1132050DEB7E2E10C94FD10CF93DF93EC018A81AB
S11320609B81009711F00E94B6118E819F81009789
S113207011F00E94B61188819981009711F00E9495
S1132080B6118C819D81009711F00E94B611DF91E9
S1132090CF910895991B79E004C0991F961708F011
S11320A0961B881F7A95C9F780950895AA1BBB1BB8
S11320B051E107C0AA1FBB1FA617B70710F0A61B44
S11320C0B70B881F991F5A95A9F780959095BC0165
S11320D0CD01089597FB072E16F4009407D077FDE1
S11320E009D00E94561007FC05D03EF490958195C6
S11320F09F4F0895709561957F4F0895A1E21A2E20
S1132100AA1BBB1BFD010DC0AA1FBB1FEE1FFF1F97
S1132110A217B307E407F50720F0A21BB30BE40BE7
S1132120F50B661F771F881F991F1A9469F760952E
S11321307095809590959B01AC01BD01CF010895E8
S1132140052E97FB1EF400940E94B71057FD07D08C
S11321500E947E1007FC03D04EF40C94B7105095E7
S11321604095309521953F4F4F4F5F4F089590957F
S11321708095709561957F4F8F4F9F4F0895A29FD3
S1132180B001B39FC001A39F700D811D1124911D47
S1132190B29F700D811D1124911D08950E94BF10DE
S11321A0A59F900DB49F900DA49F800D911D1124A7
S11321B00895B7FF0C94CE100E94CE10821B930B8F
S11321C008952F923F924F925F926F927F928F92D7
S11321D09F92AF92BF92CF92DF92EF92FF920F93B2
S11321E01F93CF93DF93CDB7DEB7CA1BDB0B0FB6BC
S11321F0F894DEBF0FBECDBF09942A883988488879
S11322005F846E847D848C849B84AA84B984C8840E
S1132210DF80EE80FD800C811B81AA81B981CE0F05
S1132220D11D0FB6F894DEBF0FBECDBFED010895EA
S1132230EE0FFF1F0590F491E02D09940F931F9367
S1132240CF93DF938230910510F482E090E0E09127
S11322501A02F0911B0220E030E0A0E0B0E03097D9
S113226019F1408151810281138148175907C8F03F
S11322708417950769F4109731F012960C9312970E
S113228013961C9327C000931A0210931B0222C0BA
S11322902115310519F04217530718F49A01BD01AD
S11322A0EF01DF01F801DBCF21153105F9F0281B1F
S11322B0390B2430310580F48A819B8161157105C5
S11322C021F0FB019383828304C090931B028093CB
S11322D01A02FE01329644C0FE01E20FF31F8193FD
S11322E0919322503109398328833AC020911802EE
S11322F030911902232B41F42091100130911101E6
S1132300309319022093180220910E0130910F018D
S11323102115310541F42DB73EB74091120150917A
S11323201301241B350BE0911802F0911902E217F6
S1132330F307A0F42E1B3F0B2817390778F0AC01E4
S11323404E5F5F4F2417350748F04E0F5F1F5093C1
S11323501902409318028193919302C0E0E0F0E0E7
S1132360CF01DF91CF911F910F910895CF93DF9308
S1132370009709F481C0FC01329713821282A09164
S11323801A02B0911B02109781F420813181820FCF
S1132390931F20911802309119022817390751F51B
S11323A0F0931902E093180267C0ED0120E030E0D9
S11323B0CE17DF0740F44A815B819E014115510528
S11323C0F1F0EA01F5CFD383C28340815181840FB8
S11323D0951FC817D90759F488819981840F951FCF
S11323E00296918380838A819B81938382832115C2
S11323F0310529F4F0931B02E0931A023DC0E90170
S1132400FB83EA8349915991C40FD51FEC17FD074B
S113241061F480819181840F951F0296E90199836B
S11324208883828193819B838A83E0E0F0E0129623
S11324308D919C911397009719F0FD01DC01F7CF62
S11324408D919C9111979D012E5F3F4F820F931F99
S113245020911802309119022817390769F430972E
S113246029F410921B0210921A0202C013821282E3
S1132470B0931902A0931802DF91CF91089510E050
S1132480C6E5D0E004C0FE010E9418112196C735AC
S10B2490D107C9F7F894FFCF4E
S113249888130F00F4010400D007040108020000A7
S11324A81C022000200000010203040506FF9C0111
S11324B8B501CF01EA0107022602470269028E022A
S11324C8B502DE020A030E0F1011126D5600507287
S10F24D86573732042004D617A650000BA
S9030000FC
